:020000040800F2
:10000000400B0020D50000086113000841120008D1
:1000100000000000000000000000000000000000E0
:100020000000000000000000000000009115000822
:100030000000000000000000A9130008931500084C
:10004000E700000800000000E7000008E7000008E3
:10005000E7000008E7000008E7000008E7000008E4
:1000600000000000E7000008E7000008E7000008C3
:10007000E7000008E7000008E700000800000000B3
:10008000E7000008E7000008E7000008E7000008B4
:10009000E7000008E7000008E7000008E7000008A4
:1000A000E7000008E7000008E7000008E700000894
:1000B000E7000008E700000800000000E700000873
:1000C0000348854600F090F800480047591D000895
:1000D000400B00200448804704480047FEE7FEE745
:1000E000FEE7FEE7FEE7FEE7F5150008C1000008A1
:1000F00030B50B46014600202022012409E00D46C0
:10010000D5409D4205D31D469540491B2546954047
:1001100040191546521E002DF1DC30BD10B5202AC5
:1001200004DB0846203AD040002110BD0B46D340E6
:10013000D0402024A21A91400843194610BD03461E
:100140000B439B0703D009E008C9121F08C0042A0B
:10015000FAD203E00B780370401C491C521EF9D2FE
:100160007047D2B201E00270401C491EFBD27047BA
:100170000022F6E710B513460A4604461946FFF773
:10018000F0FF204610BDF0B51FB40646002082B037
:1001900005464024019100901BE0019922460F463C
:1001A0003046FFF7BBFF049A059B801A994110D394
:1001B00010461946224600F029F8361A8F41019759
:1001C000224601200021009F00F020F838184D4100
:1001D00000902046641E0028DFDC019B0098294621
:1001E000324607B0F0BD0000064C0125064E05E082
:1001F000E36807CC2B430C3C98471034B442F7D348
:10020000FFF762FF441F0008641F000810B5202A92
:1002100004DB0146203A9140002010BD914020238C
:100220009C1A0346E3401943904010BD704731B516
:1002300000F0BAF8009C0546601C00D0641C00F079
:10024000B3F8401BA042FAD338BD0000F8B5002334
:100250008DE001249C40A44622407DD04C68022CB5
:1002600001D0122C0CD1DC08A40027183C6A5D07D1
:10027000ED0E0F26AE40B4430E69AE4026433E62FB
:1002800005685E000324B4400F79A543BF07BF0F84
:10029000B7402F4307604D68012D05D0022D03D0D4
:1002A000112D01D0122D0ED18568CF68A543B7401E
:1002B0002F43876047686546AF430D79ED06ED0F24
:1002C0009D403D434560C568A5438C68B4402C43C0
:1002D000C4604C68E40049D5284CA5690126354323
:1002E000A561A4699D0834400094254CAD002F19E8
:1002F000BC689D072E0F0F25B540AC430925ED06C0
:10030000A84201D100250FE01E4DA84201D10125D0
:100310000AE01D4DA84201D1022505E01B4DA8426F
:1003200001D1032500E00525B5402543BD60184CEB
:1003300025684E689543F60300D51543256065682A
:100340004E689543B60300D515436560A5684E68B1
:100350009543F60202D500E008E01543A560E56884
:100360004E689543B60200D51543E5605B1C0A68EC
:100370001446DC4000D06CE7F8BD000000100240DD
:10038000000001400004004800080048000C00483C
:100390000004014042694A4042617047002A01D08E
:1003A00081617047816270470148006870470000B2
:1003B0000400002002480168491C016070470000E9
:1003C0000400002010B506480168102211430160A6
:1003D000002000F007F800F017F8002010BD000022
:1003E0000020024010B5044600F038F97D21C90014
:1003F000FFF77EFE00F040FE00222146501E00F076
:1004000017F8002010BD000008B5084881690122D6
:1004100011438161816911400091C26901040A435D
:10042000C261C0690840009008BD00000010024091
:1004300010B500F097FF10BDF8B505460068394CBF
:10044000C00352D5E0690026C00007D4E16920044A
:100450000143E161E16901400126009132480168F0
:10046000C90510D40168821511430160FFF79CFF94
:10047000074604E0FFF798FFC01B642824D82A48E9
:100480000068C005F6D5206A03273F02384020D017
:100490006968394081421CD0206A226AB843012130
:1004A00009040A432262226A8A4322622062C00748
:1004B0000FD0FFF779FF009008E0FFF775FF009974
:1004C000411A1A48814201D90320F8BD206A8007E9
:1004D000F3D5206A6968B84308432062002E04D02F
:1004E000E169012000078143E1612878C00705D058
:1004F000206BA96880088000084320632878800664
:1005000005D5206B10218843E968084320632868DB
:10051000800305D5206B8021884329690843206327
:100520000020F8BD00100240007000408813000059
:10053000F8B5054644480E460068C007C00FB042F3
:100540000AD2414801684908490031430160006806
:10055000C007C00FB0425CD128783C4C800705D55D
:100560006068F0218843A968084360602878C00764
:100570003FD06868012813D02168022813D089076A
:10058000002946DA61688908890001436160FFF744
:100590000BFF6968074601290DD0022917D024E016
:1005A00021688903ECE78901EAE7FFF7FDFEC11B3B
:1005B0002748814217D860680007800F0128F4D1CE
:1005C00017E0FFF7F1FEC11B214881420BD860689C
:1005D0000007800F0228F4D10BE0FFF7E5FEC11BF6
:1005E0001B48814201D90320F8BD60680007800FD5
:1005F000F3D115480168C907C90FB1420BD9016889
:1006000049084900314301600068C007C00FB0428B
:1006100001D00120F8BD2878400706D56068072181
:1006200009028843E9680843606000F02DF86168BA
:10063000084A0906090F515CC840074908600020B4
:10064000FFF7D0FE0020F8BD00200240001002405D
:10065000881300002C1F00080800002001480068D3
:1006600070470000080000200448054900684968F8
:10067000044A4905490F515CC840704708000020F2
:10068000001002403C1F000810B511A30FCB88B02A
:100690006C460FC412A30FCB0FC415494A680C2037
:1006A000134603401348042B0FD0082B0DD193029F
:1006B0001B0F6C46E45CC96A04AB0907090FD2033F
:1006C000595C920FFFF714FD604308B010BD0000A5
:1006D00002030405060708090A0B0C0D0E0F101083
:1006E0000102030405060708090A0B0C0D0E0F1082
:1006F0000010024000127A00FEB504460078D24D88
:10070000C00749D068680007800F012820D06868BA
:100710000007800F022804D16868C003800F0228F8
:1007200016D0012062680004012A18D08100002A36
:1007300001D0052A17D02A6882432A602868884396
:100740002860606800281BD0FFF72EFE064613E0E5
:100750002868800320D56068002876D01CE02968CE
:1007600001432960EDE72A680A432A60F7E7FFF7AB
:100770001BFE801B642869D828688003F7D50BE02E
:10078000FFF712FE064604E0FFF70EFE801B64280A
:10079000F1D828688003F7D4207801268007002844
:1007A0003DDA68680007800F13D068680007800F83
:1007B000022804D16868C003800F012809D0E068CE
:1007C000002828681CD030432860FFF7EDFD07465D
:1007D0000BE0286880070BD5E068012835D107E0D9
:1007E000FFF7E2FDC01B0228C5D828688007F7D5AF
:1007F0002868F82188432169C900084328600EE071
:10080000400840002860FFF7CFFD074604E0FFF7EF
:10081000CBFDC01B0228AED828688007F7D420780B
:10082000000723D5E0690028686A10D03043686269
:10083000FFF7BAFD074604E0FFF7B6FDC01B02282C
:1008400099D8686A8007F7D510E0FAE0A4E040087C
:1008500040006862FFF7A8FD074604E0FFF7A4FD2B
:10086000C01B022887D8686A8007F7D4207804273D
:100870004007002860DA00200190E869C00008D431
:10088000E969B8060143E961E96901400120009185
:1008900001906E480168C90511D4016882151143A1
:1008A0000160FFF781FD009005E0FFF77DFD0099F5
:1008B000401A642870D865480068C005F5D5A0685E
:1008C00001280AD0002801D0052810D0286A400845
:1008D00040002862286AB84301E0286A3043286251
:1008E000A068002812D0FFF75FFD00900AE0286A98
:1008F00038432862F1E7FFF757FD0099411A544841
:10090000814249D8286A8007F5D50DE0FFF74CFDF4
:10091000009006E0FFF748FD0099411A4C488142DB
:100920003AD8286A8007F5D40198002804D0E969EC
:10093000012000078143E9612078C00635D5606950
:1009400001280CD0401D686B23D038436863686B66
:10095000400840006863FFF727FD064622E0686B09
:1009600038436863686B30436863FFF71DFD0646D4
:1009700004E0FFF719FD801B02285BD8686B800735
:10098000F7D5686BF8218843A169C90008436863FB
:100990000BE0B8436863F4E74CE0FFF705FD801B0C
:1009A000022847D8686B8007F7D4206A002846D011
:1009B00069680907890F022943D0012636060228F3
:1009C000286805D0B0432860FFF7EEFC044633E00A
:1009D000B0432860FFF7E8FC074604E0FFF7E4FCBB
:1009E000C01B022826D828688001F7D4E86AE16A8B
:1009F000000900010843E862616AA06A0843696867
:100A00007B22D20391430843686028683043286002
:100A1000FFF7CAFC044604E0FFF7C6FC001B0228EF
:100A200008D828688001F7D509E0FFF7BDFC001B56
:100A3000022801D90320FEBD28688001F5D40020DA
:100A4000FEBD0120FEBD000000100240007000400D
:100A500088130000F8B5040007D00026254640356D
:100A6000A662687F002802D005E00120F8BD2E773D
:100A7000204600F04BF802236B7720680168402283
:100A8000914301600721E0680902884201D90022F0
:100A900001E0012212030F273F02B84202D0884230
:100AA00000D0A662276B002F05D1884201D92363AD
:100AB00001E001202063A16860686369084321693F
:100AC000194308430123A1695B0219400843E16906
:100AD0000843216A0843A16A084321680860616BE2
:100AE000606AA36908431B0C0427E1683B40194373
:100AF00008432168104348602068C1697A02914325
:100B0000C1612666012068770020F8BD10B586B067
:100B1000044614216846FFF72BFB114920688842E0
:100B20001CD11048826981140A43826182690A409B
:100B30000592426949010A434261406908400590B3
:100B4000E0200090022001900021032003900291F8
:100B5000049109206946C006FFF778FB06B010BD76
:100B60000030014000100240FFB504460E464068C8
:100B7000FF21254600270531403581B0884202D14A
:100B8000A06800280CD0287F012815D001202877E4
:100B9000FFF70AFC0090687F01280FD0022789E048
:100BA0000420687704980090324611462046039B43
:100BB00000F03EF905B0F0BD0220FBE7002E78D032
:100BC0000398002875D004206877002020662664EA
:100BD0000399A9800399E980A063A087E087E06476
:100BE000206507200121E268000209038242226891
:100BF000536801D98B4300E00B4353600122A16885
:100C0000D203914205D121680A6801239B039A43CC
:100C10000A6021680A68520603D40A6840231A430E
:100C20000A60E168814218D934E020688168C90708
:100C300006D0007B3070E888401EE880761C0CE00F
:100C40000498002824D0401C07D0FFF7ADFB0146D4
:100C50000098091A049881421AD2E8880028E4D141
:100C60001BE020688168C90706D0C0683080E8882A
:100C7000401EE880B61C0DE00498002808D0401CF7
:100C800008D0FFF791FB0099411A0498814201D3E3
:100C900003270FE0E8880028E3D12046009A049952
:100CA00000F083FB002801D020202066206E002861
:100CB00000D001270120687700202877384679E79F
:100CC000FFB5064604464036307F002781B00D460A
:100CD000012809D001203077FFF766FB0090707F74
:100CE000012804D002279DE0022005B0F0BD002DB0
:100CF00072D0039800286FD0032070770020206600
:100D0000A5630399A1870399E1872064B080F080EF
:100D10002065E0640121A068C903884205D12068EC
:100D200001680122920311430160206801684906AD
:100D300003D401684022114301600720E1680002EA
:100D40008142606823D9002802D0E08F01281AD19F
:100D500021682888C86005E020688168890706D571
:100D60002988C160E08F401EE087AD1C0BE004982D
:100D700000283ED0401C06D0FFF716FB0099411A10
:100D80000498814235D2E08F0028E5D136E0002872
:100D900002D0E08F01282ED1E08F012803D92168ED
:100DA0002888C8600CE02168287808730FE0206864
:100DB0008168890711D5E18F012906D92988C16089
:100DC000E08F801EE087AD1C15E029780173E08F6D
:100DD000401EE0876D1C0EE023E00498002808D038
:100DE000401C08D0FFF7E0FA0099411A04988142AC
:100DF00001D3032716E0E08F0028D8D12046009ABF
:100E0000049900F00EFB002801D020202066A06885
:100E1000002803D12068C16880680090206E0028F7
:100E200000D00127012070770020307738465CE73A
:100E3000FFB5044683B00120254640350090287F49
:100E400000270E4601280FD001202877FFF7ACFAC3
:100E50000190687F616801280DD0CA1FFD3A08D152
:100E6000A168002905D102E0022007B0F0BD0428E6
:100E700001D00227FAE0002E7CD005980028FBD094
:100E800006980028F8D0687F042801D005206877EC
:100E900000202066059921640699E9800699A980B9
:100EA000A6630699E1870699A187E0642065072378
:100EB000E1681B02994202D8E888012806D9206817
:100EC0004268012109038A43426005E020684168C5
:100ED000012212031143416020680168490603D4CE
:100EE0000168402211430160E1686068994242D97B
:100EF000002802D0E08F012835D121683088C860F1
:100F0000E08F401EE087B61C2DE0009800280ED030
:100F1000E08F00280BD020688168890707D53188C9
:100F2000C160E08F401EE0870020B61C0090E8887A
:100F300000280ED020688168C9070AD0C0680599CA
:100F400008800598801C0590E888401EE8800120F4
:100F500000900C98401C06D0FFF726FA0199411A20
:100F60000C9881426DD2E08F0028CED1E88800280D
:100F7000CBD16EE079E0002802D0E08F012862D169
:100F8000E08F012807D921683088C860E08F801E73
:100F9000E087B61C57E0216830780873E08F401E68
:100FA000E087761C4FE00098002818D0E08F0028DA
:100FB00015D020688168890711D5E18F012906D9EC
:100FC0003188C160E08F801EE087B61C05E0317873
:100FD0000173E08F401EE087761C00200090E888B7
:100FE000002824D020688168C90720D0E988012919
:100FF00012D9C068059908800598801C0590E8887A
:10100000801EE880E88801280FD820684168012206
:1010100012031143416008E0017B059801700598B7
:10102000401C0590E888401EE880012000900C9844
:10103000401C08D0FFF7B8F90199401A0C99884272
:1010400001D3032712E0E08F0028ACD1E888002804
:10105000A9D12046019A0C9900F0E3F9002801D0AB
:1010600020202066206E002800D00127012068770C
:10107000002028773846F8E6094910B5401E884216
:1010800001D9012010BD074C60610321081F00F049
:1010900069F90020A06107202061002010BD000038
:1010A000FFFFFF0000E000E070B5040005D025461A
:1010B0006035687A002802D006E0012070BD00206B
:1010C0002872204600F026F8242068722068016803
:1010D000490849000160204600F02CFB0128EDD0B2
:1010E000606A002802D0204600F0B6FA2068416805
:1010F0000122D20291434160206881680822914315
:10110000816020680168012211430160204600F0DF
:1011100008FB70BD10B586B0044614216846FFF781
:1011200027F81349206888421FD11248826901219B
:1011300089030A43826182690A4005924269C900B3
:101140000A43426140690840059003204002009034
:1011500002200190002002900320039001200490BF
:1011600009206946C006FFF771F806B010BD0000FF
:101170000038014000100240FFB5064604466036C4
:10118000707A83B00D46202858D1002D0CD00598D8
:10119000002809D00120A1680003814207D12069FD
:1011A000002804D1E80702D0012007B0F0BD307A52
:1011B000012843D0012030720020E06621207072A7
:1011C000FFF7F2F8019027464037059838820598D6
:1011D000788218E0788A401E788206980090002273
:1011E00080212046019B00F047FB002818D10120F8
:1011F000A1680003814202D12069002812D0216831
:10120000287808856D1C788A0028E3D1069800901C
:10121000002240212046019B00F02EFB002808D030
:101220000320C2E728882168C005C00D0885AD1CD1
:10123000E9E72020707200203072B6E70220B4E7A0
:10124000FEE7000070B586B014216846FEF790FFF7
:10125000204842690121C9040A43426142690A40A7
:1012600005924269C9000A43426142690A400592F7
:10127000426949110A43426142690A400592426942
:1012800049000A434261406909250840ED0605907E
:10129000002210212846FFF781F80F4E002202217C
:1012A0003046FFF77BF800211020012402910391C2
:1012B0000090019469462846FEF7C8FF022000907E
:1012C000032003900194029469463046FEF7BEFF66
:1012D00006B070BD001002400004004810B511486F
:1012E0000F490160FF210531416000210722816023
:1012F00012020161C26001224161520282610162F7
:1013000010224162C26181620722C2620163082128
:101310004163FFF79FFB002801D0FEF787FF10BD58
:10132000003001401004002010B50C480A4901604B
:10133000E1214902416000218160C1600161816158
:10134000C1610C22016242614162FFF7ADFE0028DB
:1013500001D0FEF76BFF10BD00380140740400207F
:10136000704700008307FF22DB0E9A408907090EB1
:10137000994000280BDA0007000F08388308084856
:101380009B001818C36993430B43C36170478308DC
:1013900004489B001B181868904308431860704766
:1013A00000ED00E000E400E07047F7B50446406857
:1013B000FF26053682B01546B0420CD10121A06847
:1013C000C903884202D04911884204D120680168CB
:1013D0004022914301600095002280212046039B1A
:1013E00000F090F82027002813D16068B04216D191
:1013F000A068B902884202D0491188420FD1032166
:101400000095002249022046039B00F030F8002896
:1014100005D0206E38432066032005B0F0BD0020C3
:10142000FBE7F8B50F460B4615460092032104462C
:101430000022C90200F01BF82026002812D13B46EA
:10144000002280212046009500F05CF8002809D198
:1014500003213B46002249022046009500F007F890
:10146000002803D0206E304320660320F8BDF8B575
:101470001D4617460E4604463DE0032149028E42B2
:1014800005D1002F03D1017B684601700078681CEC
:1014900031D0002D05D0FEF787FF0699401AA842EB
:1014A00029D320684168E022914341606068C11FF0
:1014B000FD390CD10121A068C903884202D049112D
:1014C000884204D1206801684022914301600120D4
:1014D000A16A4003814207D121680A6882430A60F9
:1014E00021680A6802430A600120403460770020C6
:1014F00020770320F8BD206881683140B942BCD113
:101500000020F8BDF8B51D4617460E46044633E0E8
:10151000681C31D0002D05D0FEF746FF0699401A11
:10152000A84229D320684168E02291434160606865
:10153000C11FFD390CD10121A068C903884202D026
:101540004911884204D1206801684022914301601A
:101550000120A16A4003814207D121680A688243C1
:101560000A6021680A6802430A60012040346077FB
:10157000002020770320F8BD20688168304688432A
:1015800004D00020B842C3D10020F8BD0120F9E703
:10159000704710B5FEF70EFF10BD70B596B0302144
:1015A0006846FEF7E5FD00240C940D940E9414217A
:1015B00010A80F94FEF7DCFD012528040990009582
:1015C0000001022601950A9008960B946846FFF7E1
:1015D00093F807200C900E9401210D960F940CA8FF
:1015E000FEF7A6FF10A810951294FEF725FF16B07F
:1015F00070BD000015480168012211430160416877
:10160000134A114041600168124A114001600168AB
:10161000012292049143016041683F2212049143E8
:101620004160C16A09090901C162016BFF2294325C
:1016300091430163016B802211430163416B4908AF
:1016400049004163002181607047000000100240A2
:101650000CB8FF08FFFFF6FE10B5818CC90707D054
:1016600001684A6801235B049A43836A1A434A600B
:10167000818C890707D501684A6801231B049A43B6
:10168000C36A1A434A60818C490707D501684A68D2
:1016900001239B049A43036B1A434A60818C090718
:1016A00007D501684A680123DB039A43436B1A4359
:1016B0004A60818CC90607D50268916801231B0323
:1016C0009943836B19439160818C890607D5016822
:1016D0008A6801235B039A43C36B1A438A60818C37
:1016E000490612D503685A6801210905046C8A432A
:1016F00022435A60026C8A4207D102685168032370
:101700005B059943436C19435160818C090607D5E9
:1017100001684A680123DB04806C9A4302434A60F3
:1017200010BD0021C16620226030427282720172B7
:1017300008467047F8B504462369A268E5691A436C
:10174000636910202B43002125681A432B680E463D
:10175000414F3B4013432B6023685A6803252D03F8
:10176000AA43E5682A435A60236AA26925681A4396
:10177000AB680B273F02BB431343AB60374A256876
:10178000954210D1364A126B9207920F14D0012A5B
:1017900005D0022A05D0032A0FD102200DE0042033
:1017A0000BE0082009E02F4A954205D02E4A9542C9
:1017B00002D02E4A954200D100200122E369D203D3
:1017C000934224D100280CD002280DD0042813D035
:1017D000082817D001260A0912010807400F1043F4
:1017E0002FE0FEF741FF09E06168214A48088018B0
:1017F000FEF77EFC81B2EEE7FEF746FF616840002F
:101800004A08F4E76168012248081204EFE700285B
:1018100008D0022809D004280BD0082814D00126AB
:101820003046F8BDFEF720FF05E06168114A480820
:101830000CE0FEF729FF61684A088018FEF758FCA3
:1018400080B22168C860EBE7616848088018FEF73D
:101850004FFC80B2E860E3E7F369FFEF0038014036
:10186000001002400044004000480040004C00408E
:101870000024F40000127A00FFB581B017460E462E
:1018800004460A9D1DE0681C1BD0002D05D0FEF704
:101890008BFD0499401AA84213D920680168FF22E1
:1018A000A132914301602068816849084900816044
:1018B000202060346072A07200202072032005B0E6
:1018C000F0BD2068C1693046884304D00020B8428A
:1018D000D9D00020F3E70120F9E700000FB410B5DC
:1018E00003A9044B044A029800F018F810BC08BC85
:1018F00004B01847391D00080C00002002E008C899
:10190000121F08C1002AFAD170477047002001E079
:1019100001C1121F002AFBD170470000FFB58FB034
:101920000F460446002606E025280AD0129A11998F
:101930009047641C761C20780028F5D1304613B0FF
:10194000F0BD00250121A14A009500E00543641C7B
:1019500023780846203B98401042F7D120782E2863
:1019600015D1042005436078641C2A280AD101CFD0
:10197000641C00900BE000990A2251433039401852
:10198000641C00902078014630390929F3D9207869
:101990006C280ED004DC4C2813D06A2812D104E045
:1019A00074280ED07A280DD10BE0012040050543A4
:1019B00007E00121090562780D43824201D16D18CB
:1019C000641C641C2078864669284AD008DC0028FC
:1019D000B4D058286DD0632810D0642808D140E0D6
:1019E00070286BD0732812D0752860D0782860D00A
:1019F000129A704611999047761CE5E0387869464E
:101A000008720020487202A80190012003E03868A3
:101A100001900020C0433F1D69070CD5002500E060
:101A20006D1C00998D420FDA8542F9DB0199495D01
:101A30000029F5D108E0002500E06D1C8542FCDBA3
:101A40000199495D0029F8D1761907E001980199BB
:101A50000078491C0191129A119990476D1EF5D298
:101A6000B2E00A20029000216802400F0391022890
:101A70000CD001CFC117844600290DDA6246084612
:101A800052420021814194462D2008E0FF1DFF08AD
:101A9000FF0003CF8446EFE7280504D52B206A46D4
:101AA000107401203CE0E8073AD02020F7E70A2034
:101AB00000E0102000210391029007E01020029026
:101AC0000021042005430820039100906802400F84
:101AD000022810D001CF0021844600200D90280755
:101AE0001FD5704670280CD0029A1020039B4240EC
:101AF0001A430CD015E0FF1DFF08FF0003CF8446FA
:101B0000EBE740206A46107401200D900CE060461F
:101B1000084306D030206A46107470465074022084
:101B20000D907046582804D029A001900DA80E9061
:101B30000DE02CA0F9E76046039B029AFEF723FB19
:101B4000019B84469B5C0E9A521E0E921370604657
:101B50000843F0D10E9805A9081A203001906807B3
:101B600001D5009801E0012000900199884203DD31
:101B700001460198081A00E000200025009006E0C8
:101B800004A8129A405D119990476D1C761C0D981F
:101B90008542F5DB04E0129A302011999047761CBB
:101BA0000099481E00900029F5DC08E00E980E9977
:101BB0000078491C0E91129A11999047761C019950
:101BC000481E01900029F1DC641CB4E609280100DC
:101BD00030313233343536373839616263646566A3
:101BE0000000000030313233343536373839414265
:101BF000434445460000000008B508A000680223E1
:101C00000090074A1946684600F048F9002801D0BC
:101C1000002008BD0248007808BD000005FFFFFF56
:101C20001006002010B51346064A03241470040C55
:101C30005470040A9470D0700A460421014800F0E0
:101C40002DF910BDE404002008B50AA0006800903A
:101C50000223094A0421684600F020F9002801D037
:101C6000002008BD0448417800780902081880B2B5
:101C700008BD000090FFFFFF1006002070B504466D
:101C8000042500F027F8074820210170210C41703D
:101C9000210A8170C470294600F028F900F004F888
:101CA00070BD0000E404002070B50024FFF7A4FF1D
:101CB000641CA4B20546C82C05D80220FEF7B7FA6A
:101CC000A807F3D103E0800701D0022070BD0020F7
:101CD00070BD000008B504A00068009001216846AE
:101CE00000F004F908BD000006FFFFFFF8B50F463D
:101CF00015460446C6B2FF2170190131884201D948
:101D00000120F8BDFFF7E6FF0A4802210170210C0F
:101D10004170210A8170C6702A463946001DFEF7BF
:101D20000EFA2D1DA9B2034800F0E0F8FFF7BCFF42
:101D3000F8BD0000E404002038B50446684604708D
:101D4000034B012269460348FFF716FA204638BDC7
:101D5000FFFF000074040020FEF734FBFFF71DFCBA
:101D6000FFF770FAFFF7BAFAFFF7DEFA002028490A
:101D7000FF24F5340854401C80B2A042FAD3254D0C
:101D8000254F02212548FEF705FBFFF75DFF288060
:101D9000014623A0FFF7A2FD6420FFF76FFF288014
:101DA000014622A0FFF79AFD22461B490020FFF7BB
:101DB00039FF2880014622A0FFF790FD0026B95D7B
:101DC00023A0FFF78BFD761CB6B2A642F7D3FF2205
:101DD00003320F49002000F03FF822460E49002050
:101DE000FFF720FF2880014615A0FFF777FD0026AA
:101DF000B95D17A0FFF772FD761CB6B2A642F7D305
:101E000014A0FFF76BFD7D20C000FEF710FAB8E7C5
:101E100010020020000000201000002000040048F4
:101E2000726574203D202578200A00006572617378
:101E30006520726574203D202564200A00000000A2
:101E40007265616420726574203D202564200A005B
:101E5000255820000A0A0000F8B50F460646C1B210
:101E6000FF200130451A1446AA4204DC39463046A8
:101E7000FFF73CFFF8BD2A4639463046FFF736FFEC
:101E80000028F7D1641B002CF4DD7F197619FF259B
:101E90000135AC42EFDCA5B2EDE70000FFB5092645
:101EA0000C460546F60681B0002210213046FEF7AA
:101EB00075FA7D27FF003B46224629460A48FEF771
:101EC000FFFE3B460848049A0399FEF74DFE044680
:101ED000012210213046FEF761FA002C02D00120C9
:101EE00005B0F0BD0020FBE71004002070B5092606
:101EF0000C460546F606002210213046FEF74EFA43
:101F00007D23DB00224629460748FEF7D9FE04461A
:101F1000012210213046FEF741FA002C01D00120A9
:101F200070BD002070BD0000100400200000000003
:101F30000000000001020304060708090000000079
:101F400001020304641F00080000002010000000CC
:101F5000FC180008741F000810000020300B00005F
:101F60000C190008000000000000000000127A00B8
:041F7000000000006D
:04000005080000C12E
:00000001FF
